:100000000C945D000C9485000C9485000C94850084
:100010000C9485000C9485000C9485000C9485004C
:100020000C9485000C9485000C9485000C9485003C
:100030000C9485000C9485000C9485000C9485002C
:100040000C941C050C9485000C94EA040C94C404D4
:100050000C9485000C9485000C9485000C9485000C
:100060000C9485000C94850000000008000201003B
:100070000003040700000000000000000000000072
:10008000250028002B0000000000240027002A0083
:10009000040404040404040402020202020203032E
:1000A0000303030301020408102040800102040836
:1000B0001020010204081020660511241FBECFEF96
:1000C000D8E0DEBFCDBF11E0A0E0B1E0EAECF2E1A4
:1000D00002C005900D92A035B107D9F722E0A0E546
:1000E000B1E001C01D92A231B207E1F710E0CDE509
:1000F000D0E004C02197FE010E945D09CC35D107F4
:10010000C9F70E94B0050C9463090C94000090E0BC
:10011000FC01EC55FF4F249180579F4FFC018491C7
:10012000882399F090E0880F991FFC01EA57FF4F50
:10013000A591B491FC01E458FF4F859194918FB73C
:10014000F894EC91E22BEC938FBF0895AF92BF929D
:10015000CF92DF92EF92FF920F931F93CF93DF9393
:100160006C017B018B01040F151FEB015E01AE18C2
:10017000BF08C017D10759F06991D601ED91FC91E4
:100180000190F081E02DC6010995892B79F7C50111
:10019000DF91CF911F910F91FF90EF90DF90CF9063
:1001A000BF90AF900895FC01538D448D252F30E012
:1001B000842F90E0821B930B541710F0CF96089574
:1001C00001970895FC01918D828D981761F0A28DA1
:1001D000AE0FBF2FB11D5D968C91928D9F5F9F7367
:1001E000928F90E008958FEF9FEF0895FC01918D1D
:1001F000828D981731F0828DE80FF11D858D90E08A
:1002000008958FEF9FEF0895FC01918D228D892F26
:1002100090E0805C9F4F821B91098F73992708950E
:100220008DE591E00E94040121E0892B09F420E092
:10023000822F089580E090E0892B29F00E94100120
:1002400081110C9400000895FC01A48DA80FB92F12
:10025000B11DA35ABF4F2C91848D90E001968F73EE
:100260009927848FA689B7892C93A089B1898C910D
:10027000837080648C93938D848D981306C002885C
:10028000F389E02D80818F7D80830895EF92FF9226
:100290000F931F93CF93DF93EC0181E0888F9B8DA9
:1002A0008C8D98131AC0E889F989808185FF15C063
:1002B0009FB7F894EE89FF896083E889F989808186
:1002C0008370806480839FBF81E090E0DF91CF9155
:1002D0001F910F91FF90EF900895F62E0B8D10E077
:1002E0000F5F1F4F0F731127E02E8C8D8E110CC0E6
:1002F0000FB607FCFACFE889F989808185FFF5CF31
:10030000CE010E942401F1CFEB8DEC0FFD2FF11DEA
:10031000E35AFF4FF0829FB7F8940B8FEA89FB896D
:1003200080818062CFCFCF93DF93EC01888D8823CB
:10033000B9F0AA89BB89E889F9898C9185FD03C048
:10034000808186FD0DC00FB607FCF7CF8C9185FF2D
:10035000F2CF808185FFEDCFCE010E942401E9CF4D
:10036000DF91CF91089590E0FC01E859FF4F24916F
:10037000FC01EC55FF4F3491FC01E057FF4FE49135
:10038000EE23C9F0222339F0233001F1A8F4213003
:1003900019F1223029F1F0E0EE0FFF1FE458FF4F72
:1003A000A591B4918FB7F894EC91611126C0309566
:1003B0003E233C938FBF08952730A9F02830C9F021
:1003C000243049F7809180008F7D03C080918000A8
:1003D0008F7780938000DFCF84B58F7784BDDBCFAC
:1003E00084B58F7DFBCF8091B0008F778093B00074
:1003F000D2CF8091B0008F7DF9CF3E2BDACF3FB7BF
:10040000F8948091550190915601A0915701B091B7
:10041000580126B5A89B05C02F3F19F00196A11DD4
:10042000B11D3FBFBA2FA92F982F8827BC01CD013E
:10043000620F711D811D911D42E0660F771F881F9D
:10044000991F4A95D1F70895089590E080E00895A6
:10045000FB0101900020E9F73197AF01461B570BD4
:10046000DC01ED91FC910280F381E02D09948F92E3
:100470009F92AF92BF92EF92FF920F931F93CF93F1
:10048000DF93CDB7DEB7A1970FB6F894DEBF0FBEEE
:10049000CDBF7C01FA01CB0119A2223008F42AE079
:1004A0008E010F5D1F4F822E912CB12CA12CBF010C
:1004B000A50194010E943B09F901CA016A300CF5BB
:1004C000605DD8016E938D01232B242B252B79F7AA
:1004D00090E080E0109721F0BD01C7010E94280242
:1004E000A1960FB6F894DEBF0FBECDBFDF91CF91BE
:1004F0001F910F91FF90EF90BF90AF909F908F90C2
:100500000895695CDECF2F923F924F925F926F9277
:100510007F928F929F92AF92BF92CF92DF92EF9293
:10052000FF921F93CF93DF93EC016A017B01722E40
:10053000AB019601CB01B6010E9436096EE171E074
:10054000811126C046015701E894B7F82FEF3FEF1D
:100550004FE75FE7C501B4010E94360981110CC065
:100560002FEF3FEF4FE75FE7C501B4010E946C0733
:1005700062E271E0181664F02FEF3FEF4FE75FE49F
:10058000C701B6010E94C4081816B4F466E271E00F
:10059000CE01DF91CF911F91FF90EF90DF90CF9030
:1005A000BF90AF909F908F907F906F905F904F9093
:1005B0003F902F900C9428022FEF3FEF4FE75FEC16
:1005C000C701B6010E946C0787FDE0CF20E030E054
:1005D000A901C701B6010E946C07312C212C87FFAD
:1005E0000DC0E881F9810190F081E02D6DE2CE012E
:1005F00009951C01F7FAF094F7F8F09410E060E028
:1006000070E080E09FE3711641F020E030E040E2CE
:1006100051E40E9471071F5FF6CFA70196010E9467
:1006200000072B013C010E94E3074B015C012AE01B
:10063000BC01A401CE010E9437027C01E20CF31C34
:100640001123E1F1C501B4010E9412089B01AC0124
:10065000C301B2010E94FF064B015C01E881F981F0
:100660000190F081E02D6EE2CE010995E80EF91EB1
:10067000115020F120E030E040E251E4C501B40126
:100680000E94C9082B013C010E94E3074B01B12CD9
:10069000A12C2AE0B501A401CE010E943702E80E88
:1006A000F91EC501B4010E9412089B01AC01C301EF
:1006B000B2010E94FF064B015C01DACFC701DF9156
:1006C000CF911F91FF90EF90DF90CF90BF90AF90B0
:1006D0009F908F907F906F905F904F903F902F9062
:1006E0000895CF93DF93EC0160E08E810E94B30107
:1006F00061E08E810E94B30160E08E810E94B301AF
:100700008BE891E00197F1F7DF91CF910895CF92B7
:10071000DF92EF92FF920F931F93CF93DF936C01C1
:100720007C0187E0E80EF11CD0E0C0E0062F10E06D
:10073000B8010C2E02C0759567950A94E2F76170B6
:10074000F70181917F010E94B3012196C430D10548
:1007500079F7C601DF91CF911F910F91FF90EF9034
:10076000DF90CF900C947103CF92DF92EF92FF92C3
:100770000F931F93CF93DF93EC01F62E642F8C81A0
:100780000E94B3018D818F3F19F060E00E94B30198
:100790000F2D10E08F8584FF25C06E0187E0C80E05
:1007A000D11CF12CE12CB8010E2C02C07595679577
:1007B0000A94E2F76170F60181916F010E94B30122
:1007C000FFEFEF1AFF0A88E0E816F10461F7CE01A7
:1007D000DF91CF911F910F91FF90EF90DF90CF901D
:1007E0000C947103B80184E0759567958A95E1F7DB
:1007F000CE010E9487036F2DCE01DF91CF911F9113
:100800000F91FF90EF90DF90CF900C94870340E022
:10081000682F8AEF91E00C94B403CF93DF9382307A
:1008200029F49091090298609093090280930D0237
:1008300010920E0280E480930F0280E180931002F8
:1008400080E5809311028091FE010E9487008091D3
:10085000FF018F3F11F00E948700809100020E94EB
:100860008700CAEFD1E09E012A5F314080910902E2
:1008700084FD0AC084E090E02196281739073CF4F3
:100880008E810E948700EFCF88E090E0F5CF8BE368
:100890009DE00197F1F760E08091FE010E94B301B5
:1008A00060E0809100020E94B3018091FF018F3FC0
:1008B00019F060E00E94B3018091090284FD39C003
:1008C00063E08AEF91E00E948703CBE4D6E4CE0197
:1008D0000197F1F763E08AEF91E00E948703219787
:1008E000F1F763E08AEF91E00E94870383E592E0ED
:1008F0000197F1F762E08AEF91E00E94870380910F
:10090000090280620E94070484E080930A028CE05E
:100910000E94070481E00E9407048BE39FE1019796
:10092000F1F782E080930B0286E0DF91CF910C9487
:10093000070480620E9407048BE496E40197F1F7B4
:100940008091090280620E94070483E592E001978A
:10095000F1F78091090280620E940704D0CF909144
:100960000D02691710F06FEF690FE62FF0E0E65007
:10097000FE4F9489890F80680C94070441E00E941F
:10098000B40381E090E008951F920F920FB60F928A
:1009900011242F933F934F935F936F937F938F9384
:1009A0009F93AF93BF93EF93FF938DE591E00E94E8
:1009B0002401FF91EF91BF91AF919F918F917F9112
:1009C0006F915F914F913F912F910F900FBE0F90BC
:1009D0001F9018951F920F920FB60F9211242F930C
:1009E0008F939F93EF93FF93E0916D01F0916E01D0
:1009F0008081E0917301F091740182FD1BC09081B0
:100A0000809176018F5F8F7320917701821741F07B
:100A1000E0917601F0E0E35AFE4F958F80937601E6
:100A2000FF91EF919F918F912F910F900FBE0F909B
:100A30001F9018958081F4CF1F920F920FB60F92DE
:100A400011242F933F938F939F93AF93BF938091E4
:100A5000510190915201A0915301B09154013091F4
:100A6000500123E0230F2D3758F50196A11DB11D2C
:100A7000209350018093510190935201A093530110
:100A8000B09354018091550190915601A091570166
:100A9000B09158010196A11DB11D8093550190930D
:100AA0005601A0935701B0935801BF91AF919F9108
:100AB0008F913F912F910F900FBE0F901F9018951F
:100AC00026E8230F0296A11DB11DD2CFEDE5F1E07E
:100AD0001382128288EE93E0A0E0B0E084839583D5
:100AE000A683B78384E091E09183808385EC90E0D6
:100AF0009587848784EC90E09787868780EC90E0E8
:100B0000918B808B81EC90E0938B828B82EC90E0D8
:100B1000958B848B86EC90E0978B868B118E128E52
:100B2000138E148EEAEFF1E01382128286E191E0D7
:100B3000918380838CE084838FEF85838BE0868331
:100B400085E0878384E0808783E0818782E08287F5
:100B50001386148615861686178681E00C940D047C
:100B6000789484B5826084BD84B5816084BD85B588
:100B7000826085BD85B5816085BD80916E00816094
:100B800080936E001092810080918100826080933A
:100B9000810080918100816080938100809180003C
:100BA0008160809380008091B10084608093B10067
:100BB0008091B00081608093B00080917A00846061
:100BC00080937A0080917A00826080937A0080918D
:100BD0007A00816080937A0080917A0080688093A7
:100BE0007A001092C10086E00E948700E0916D01BA
:100BF000F0916E0182E08083E0916901F0916A01D9
:100C00001082E0916B01F0916C018FEC8083109267
:100C10007501E0917101F091720186E08083E091AD
:100C20006F01F0917001808180618083E0916F019C
:100C3000F0917001808188608083E0916F01F09174
:100C40007001808180688083E0916F01F091700174
:100C500080818F7D808382E00E940D0490E4B92E14
:100C6000CBE3DFE100E010E0B0927C0080917A00FD
:100C7000806480937A0080917A0086FDFCCF809119
:100C8000780060917900762F682F072E000C880B72
:100C9000990B0E94140820E030E040EA50E40E94E2
:100CA000C90820E030E048EC52E40E94C90820E086
:100CB00030EC4FE754E40E94710760935901709340
:100CC0005A0180935B0190935C0181E00E940704CC
:100CD000CE010197F1F760E080E00E94AF046AE284
:100CE00071E08AEF91E00E94280260E086E00E94B5
:100CF000AF044091590150915A0160915B0170918C
:100D00005C0122E08AEF91E00E94830220E030E063
:100D100040EA51E46091590170915A0180915B0160
:100D200090915C010E94C40887FD5EC061E086E08E
:100D30000E94B30161E080E00E94AF046FE271E0C5
:100D40008AEF91E00E94280261E471E08DE591E074
:100D50000E9428026DE471E08DE591E00E94280276
:100D60004091590150915A0160915B0170915C0171
:100D700022E08DE591E00E9483026DE471E08DE553
:100D800091E00E9428020E94FF012B013C0188EEA5
:100D9000C82E83E0D82EE12CF12C0E94FF016419AB
:100DA000750986099709683E734081059105A8F386
:100DB00021E0C21AD108E108F10888EE480E83E06C
:100DC000581E611C711CC114D104E104F10429F7FF
:100DD0000115110509F448CF0E941001882309F478
:100DE00043CF0E94000040CF60E086E00E94B30144
:100DF00061E080E00E94AF0468E371E0A1CF505849
:100E0000BB27AA270E9417070C948A080E947C0817
:100E100038F00E94830820F039F49F3F19F426F43B
:100E20000C9479080EF4E095E7FB0C947308E92F15
:100E30000E949B0858F3BA17620773078407950747
:100E400020F079F4A6F50C94BD080EF4E0950B2E75
:100E5000BA2FA02D0B01B90190010C01CA01A0010C
:100E60001124FF27591B99F0593F50F4503E68F167
:100E70001A16F040A22F232F342F4427585FF3CFA8
:100E8000469537952795A795F0405395C9F77EF479
:100E90001F16BA0B620B730B840BBAF09150A1F0C2
:100EA000FF0FBB1F661F771F881FC2F70EC0BA0F48
:100EB000621F731F841F48F4879577956795B795D0
:100EC000F7959E3F08F0B0CF9395880F08F09927CB
:100ED000EE0F9795879508950E944F0808F481E0DA
:100EE00008950E9485070C948A080E94830858F090
:100EF0000E947C0840F029F45F3F29F00C947308AD
:100F000051110C94BE080C9479080E949B0868F358
:100F10009923B1F3552391F3951B550BBB27AA27B2
:100F200062177307840738F09F5F5F4F220F331FEC
:100F3000441FAA1FA9F335D00E2E3AF0E0E832D0B4
:100F400091505040E695001CCAF72BD0FE2F29D0B7
:100F5000660F771F881FBB1F261737074807AB0789
:100F6000B0E809F0BB0B802DBF01FF2793585F4FFE
:100F70003AF09E3F510578F00C9473080C94BE082B
:100F80005F3FE4F3983ED4F3869577956795B795E0
:100F9000F7959F5FC9F7880F911D9695879597F9EB
:100FA0000895E1E0660F771F881FBB1F6217730764
:100FB0008407BA0720F0621B730B840BBA0BEE1F79
:100FC00088F7E09508950E94A30888F09F5798F04D
:100FD000B92F9927B751B0F0E1F0660F771F881F3E
:100FE000991F1AF0BA95C9F714C0B13091F00E9458
:100FF000BD08B1E008950C94BD08672F782F8827AD
:10100000B85F39F0B93FCCF3869577956795B3957E
:10101000D9F73EF490958095709561957F4F8F4FED
:101020009F4F0895E89409C097FB3EF490958095F2
:10103000709561957F4F8F4F9F4F9923A9F0F92F9E
:1010400096E9BB279395F695879577956795B7951C
:10105000F111F8CFFAF4BB0F11F460FF1BC06F5F02
:101060007F4F8F4F9F4F16C0882311F096E911C014
:10107000772321F09EE8872F762F05C0662371F035
:1010800096E8862F70E060E02AF09A95660F771F49
:10109000881FDAF7880F9695879597F90895990F25
:1010A0000008550FAA0BE0E8FEEF16161706E80732
:1010B000F907C0F012161306E407F50798F0621B53
:1010C000730B840B950B39F40A2661F0232B242B28
:1010D000252B21F408950A2609F4A140A6958FEF47
:1010E000811D811D089597F99F6780E870E060E099
:1010F00008959FEF80EC089500240A9416161706B1
:1011000018060906089500240A94121613061406F8
:1011100005060895092E0394000C11F4882352F05B
:10112000BB0F40F4BF2B11F460FF04C06F5F7F4F13
:101130008F4F9F4F089557FD9058440F551F59F0FA
:101140005F3F71F04795880F97FB991F61F09F3FB4
:1011500079F087950895121613061406551FF2CFDD
:101160004695F1DF08C0161617061806991FF1CF2D
:1011700086957105610508940895E894BB27662754
:101180007727CB0197F908950E944F0808F48FEF55
:1011900008950E94DC080C948A080E947C0838F0AC
:1011A0000E94830820F0952311F00C9473080C948E
:1011B000790811240C94BE080E949B0870F3959F37
:1011C000C1F3950F50E0551F629FF001729FBB273E
:1011D000F00DB11D639FAA27F00DB11DAA1F649FDA
:1011E0006627B00DA11D661F829F2227B00DA11D8D
:1011F000621F739FB00DA11D621F839FA00D611D13
:10120000221F749F3327A00D611D231F849F600D33
:10121000211D822F762F6A2F11249F5750409AF05C
:10122000F1F088234AF0EE0FFF1FBB1F661F771FE8
:10123000881F91505040A9F79E3F510580F00C94B3
:1012400073080C94BE085F3FE4F3983ED4F3869590
:1012500077956795B795F795E7959F5FC1F7FE2B53
:10126000880F911D9695879597F908950E944F08CC
:10127000880B990B0895A1E21A2EAA1BBB1BFD0136
:101280000DC0AA1FBB1FEE1FFF1FA217B307E40765
:10129000F50720F0A21BB30BE40BF50B661F771FBD
:1012A000881F991F1A9469F760957095809590959D
:1012B0009B01AC01BD01CF010895EE0FFF1F05900A
:0A12C000F491E02D0994F894FFCF9B
:1012CA00000000004601A600D30093010401E200D9
:1012DA00F60000000000BE04A600250224026E618A
:1012EA006E00696E66006F76660054656D70006DFB
:1012FA006F746F72204F4E006D6F746F72204F467D
:10130A000054656D7065726174757261000D0A0032
:00000001FF
